{
  "_format": "hh-sol-artifact-1",
  "contractName": "Mint",
  "sourceName": "contracts/Mint.sol",
  "abi": [
    {
      "inputs": [
        {
          "internalType": "string",
          "name": "name",
          "type": "string"
        },
        {
          "internalType": "string",
          "name": "symbol",
          "type": "string"
        },
        {
          "internalType": "string",
          "name": "baseTokenURI",
          "type": "string"
        },
        {
          "internalType": "string",
          "name": "baseImageURI",
          "type": "string"
        }
      ],
      "stateMutability": "nonpayable",
      "type": "constructor"
    },
    {
      "anonymous": false,
      "inputs": [
        {
          "indexed": true,
          "internalType": "address",
          "name": "owner",
          "type": "address"
        },
        {
          "indexed": true,
          "internalType": "address",
          "name": "approved",
          "type": "address"
        },
        {
          "indexed": true,
          "internalType": "uint256",
          "name": "tokenId",
          "type": "uint256"
        }
      ],
      "name": "Approval",
      "type": "event"
    },
    {
      "anonymous": false,
      "inputs": [
        {
          "indexed": true,
          "internalType": "address",
          "name": "owner",
          "type": "address"
        },
        {
          "indexed": true,
          "internalType": "address",
          "name": "operator",
          "type": "address"
        },
        {
          "indexed": false,
          "internalType": "bool",
          "name": "approved",
          "type": "bool"
        }
      ],
      "name": "ApprovalForAll",
      "type": "event"
    },
    {
      "anonymous": false,
      "inputs": [
        {
          "indexed": true,
          "internalType": "address",
          "name": "previousOwner",
          "type": "address"
        },
        {
          "indexed": true,
          "internalType": "address",
          "name": "newOwner",
          "type": "address"
        }
      ],
      "name": "OwnershipTransferred",
      "type": "event"
    },
    {
      "anonymous": false,
      "inputs": [
        {
          "indexed": true,
          "internalType": "address",
          "name": "from",
          "type": "address"
        },
        {
          "indexed": true,
          "internalType": "address",
          "name": "to",
          "type": "address"
        },
        {
          "indexed": true,
          "internalType": "uint256",
          "name": "tokenId",
          "type": "uint256"
        }
      ],
      "name": "Transfer",
      "type": "event"
    },
    {
      "inputs": [],
      "name": "DexRouter",
      "outputs": [
        {
          "internalType": "address",
          "name": "",
          "type": "address"
        }
      ],
      "stateMutability": "view",
      "type": "function"
    },
    {
      "inputs": [],
      "name": "FeeReceiver",
      "outputs": [
        {
          "internalType": "address",
          "name": "",
          "type": "address"
        }
      ],
      "stateMutability": "view",
      "type": "function"
    },
    {
      "inputs": [],
      "name": "RewardToken",
      "outputs": [
        {
          "internalType": "address",
          "name": "",
          "type": "address"
        }
      ],
      "stateMutability": "view",
      "type": "function"
    },
    {
      "inputs": [
        {
          "internalType": "address",
          "name": "to",
          "type": "address"
        },
        {
          "internalType": "uint256",
          "name": "tokenId",
          "type": "uint256"
        }
      ],
      "name": "approve",
      "outputs": [],
      "stateMutability": "nonpayable",
      "type": "function"
    },
    {
      "inputs": [
        {
          "internalType": "address",
          "name": "owner",
          "type": "address"
        }
      ],
      "name": "balanceOf",
      "outputs": [
        {
          "internalType": "uint256",
          "name": "",
          "type": "uint256"
        }
      ],
      "stateMutability": "view",
      "type": "function"
    },
    {
      "inputs": [],
      "name": "claimRewardsTokens",
      "outputs": [],
      "stateMutability": "nonpayable",
      "type": "function"
    },
    {
      "inputs": [],
      "name": "cost",
      "outputs": [
        {
          "internalType": "uint256",
          "name": "",
          "type": "uint256"
        }
      ],
      "stateMutability": "view",
      "type": "function"
    },
    {
      "inputs": [],
      "name": "getAllNFTs",
      "outputs": [
        {
          "components": [
            {
              "internalType": "uint256",
              "name": "id",
              "type": "uint256"
            },
            {
              "internalType": "address",
              "name": "buyer",
              "type": "address"
            },
            {
              "internalType": "uint256",
              "name": "cost",
              "type": "uint256"
            },
            {
              "internalType": "string",
              "name": "imageURL",
              "type": "string"
            },
            {
              "internalType": "uint256",
              "name": "timestamp",
              "type": "uint256"
            }
          ],
          "internalType": "struct Mint.MintedNftStruct[]",
          "name": "",
          "type": "tuple[]"
        }
      ],
      "stateMutability": "view",
      "type": "function"
    },
    {
      "inputs": [
        {
          "internalType": "uint256",
          "name": "tokenId",
          "type": "uint256"
        }
      ],
      "name": "getApproved",
      "outputs": [
        {
          "internalType": "address",
          "name": "",
          "type": "address"
        }
      ],
      "stateMutability": "view",
      "type": "function"
    },
    {
      "inputs": [
        {
          "internalType": "uint256",
          "name": "tokenId",
          "type": "uint256"
        }
      ],
      "name": "getReflectionBalance",
      "outputs": [
        {
          "internalType": "uint256",
          "name": "",
          "type": "uint256"
        }
      ],
      "stateMutability": "view",
      "type": "function"
    },
    {
      "inputs": [
        {
          "internalType": "address",
          "name": "_owner",
          "type": "address"
        }
      ],
      "name": "getReflectionBalances",
      "outputs": [
        {
          "internalType": "uint256",
          "name": "",
          "type": "uint256"
        }
      ],
      "stateMutability": "view",
      "type": "function"
    },
    {
      "inputs": [
        {
          "internalType": "address",
          "name": "_owner",
          "type": "address"
        }
      ],
      "name": "getTokenIds",
      "outputs": [
        {
          "internalType": "uint256[]",
          "name": "",
          "type": "uint256[]"
        }
      ],
      "stateMutability": "view",
      "type": "function"
    },
    {
      "inputs": [],
      "name": "imageExtension",
      "outputs": [
        {
          "internalType": "string",
          "name": "",
          "type": "string"
        }
      ],
      "stateMutability": "view",
      "type": "function"
    },
    {
      "inputs": [
        {
          "internalType": "address",
          "name": "minter",
          "type": "address"
        }
      ],
      "name": "isAddressMinted",
      "outputs": [
        {
          "internalType": "bool",
          "name": "",
          "type": "bool"
        }
      ],
      "stateMutability": "view",
      "type": "function"
    },
    {
      "inputs": [
        {
          "internalType": "address",
          "name": "owner",
          "type": "address"
        },
        {
          "internalType": "address",
          "name": "operator",
          "type": "address"
        }
      ],
      "name": "isApprovedForAll",
      "outputs": [
        {
          "internalType": "bool",
          "name": "",
          "type": "bool"
        }
      ],
      "stateMutability": "view",
      "type": "function"
    },
    {
      "inputs": [
        {
          "internalType": "uint256",
          "name": "",
          "type": "uint256"
        }
      ],
      "name": "lastDividendAt",
      "outputs": [
        {
          "internalType": "uint256",
          "name": "",
          "type": "uint256"
        }
      ],
      "stateMutability": "view",
      "type": "function"
    },
    {
      "inputs": [],
      "name": "lastSupply",
      "outputs": [
        {
          "internalType": "uint256",
          "name": "",
          "type": "uint256"
        }
      ],
      "stateMutability": "view",
      "type": "function"
    },
    {
      "inputs": [],
      "name": "maxMintAmount",
      "outputs": [
        {
          "internalType": "uint256",
          "name": "",
          "type": "uint256"
        }
      ],
      "stateMutability": "view",
      "type": "function"
    },
    {
      "inputs": [],
      "name": "maxSupply",
      "outputs": [
        {
          "internalType": "uint256",
          "name": "",
          "type": "uint256"
        }
      ],
      "stateMutability": "view",
      "type": "function"
    },
    {
      "inputs": [
        {
          "internalType": "uint256",
          "name": "_mintAmount",
          "type": "uint256"
        }
      ],
      "name": "mint",
      "outputs": [],
      "stateMutability": "payable",
      "type": "function"
    },
    {
      "inputs": [],
      "name": "mintOnce",
      "outputs": [
        {
          "internalType": "bool",
          "name": "",
          "type": "bool"
        }
      ],
      "stateMutability": "view",
      "type": "function"
    },
    {
      "inputs": [],
      "name": "mintReward",
      "outputs": [
        {
          "internalType": "uint256",
          "name": "",
          "type": "uint256"
        }
      ],
      "stateMutability": "view",
      "type": "function"
    },
    {
      "inputs": [
        {
          "internalType": "uint256",
          "name": "",
          "type": "uint256"
        }
      ],
      "name": "minters",
      "outputs": [
        {
          "internalType": "address",
          "name": "",
          "type": "address"
        }
      ],
      "stateMutability": "view",
      "type": "function"
    },
    {
      "inputs": [],
      "name": "name",
      "outputs": [
        {
          "internalType": "string",
          "name": "",
          "type": "string"
        }
      ],
      "stateMutability": "view",
      "type": "function"
    },
    {
      "inputs": [],
      "name": "owner",
      "outputs": [
        {
          "internalType": "address",
          "name": "",
          "type": "address"
        }
      ],
      "stateMutability": "view",
      "type": "function"
    },
    {
      "inputs": [
        {
          "internalType": "uint256",
          "name": "tokenId",
          "type": "uint256"
        }
      ],
      "name": "ownerOf",
      "outputs": [
        {
          "internalType": "address",
          "name": "",
          "type": "address"
        }
      ],
      "stateMutability": "view",
      "type": "function"
    },
    {
      "inputs": [
        {
          "internalType": "bool",
          "name": "_state",
          "type": "bool"
        }
      ],
      "name": "pause",
      "outputs": [],
      "stateMutability": "nonpayable",
      "type": "function"
    },
    {
      "inputs": [],
      "name": "paused",
      "outputs": [
        {
          "internalType": "bool",
          "name": "",
          "type": "bool"
        }
      ],
      "stateMutability": "view",
      "type": "function"
    },
    {
      "inputs": [
        {
          "internalType": "address",
          "name": "_winner",
          "type": "address"
        },
        {
          "internalType": "uint256",
          "name": "_amount",
          "type": "uint256"
        }
      ],
      "name": "randomGiveaway",
      "outputs": [],
      "stateMutability": "nonpayable",
      "type": "function"
    },
    {
      "inputs": [],
      "name": "reflectToOwners",
      "outputs": [],
      "stateMutability": "payable",
      "type": "function"
    },
    {
      "inputs": [],
      "name": "reflectionBalance",
      "outputs": [
        {
          "internalType": "uint256",
          "name": "",
          "type": "uint256"
        }
      ],
      "stateMutability": "view",
      "type": "function"
    },
    {
      "inputs": [
        {
          "internalType": "uint256",
          "name": "",
          "type": "uint256"
        }
      ],
      "name": "remainingIds",
      "outputs": [
        {
          "internalType": "uint256",
          "name": "",
          "type": "uint256"
        }
      ],
      "stateMutability": "view",
      "type": "function"
    },
    {
      "inputs": [],
      "name": "renounceOwnership",
      "outputs": [],
      "stateMutability": "nonpayable",
      "type": "function"
    },
    {
      "inputs": [],
      "name": "router",
      "outputs": [
        {
          "internalType": "contract IUniswapV2Router02",
          "name": "",
          "type": "address"
        }
      ],
      "stateMutability": "view",
      "type": "function"
    },
    {
      "inputs": [
        {
          "internalType": "address",
          "name": "from",
          "type": "address"
        },
        {
          "internalType": "address",
          "name": "to",
          "type": "address"
        },
        {
          "internalType": "uint256",
          "name": "tokenId",
          "type": "uint256"
        }
      ],
      "name": "safeTransferFrom",
      "outputs": [],
      "stateMutability": "nonpayable",
      "type": "function"
    },
    {
      "inputs": [
        {
          "internalType": "address",
          "name": "from",
          "type": "address"
        },
        {
          "internalType": "address",
          "name": "to",
          "type": "address"
        },
        {
          "internalType": "uint256",
          "name": "tokenId",
          "type": "uint256"
        },
        {
          "internalType": "bytes",
          "name": "_data",
          "type": "bytes"
        }
      ],
      "name": "safeTransferFrom",
      "outputs": [],
      "stateMutability": "nonpayable",
      "type": "function"
    },
    {
      "inputs": [
        {
          "internalType": "address",
          "name": "operator",
          "type": "address"
        },
        {
          "internalType": "bool",
          "name": "approved",
          "type": "bool"
        }
      ],
      "name": "setApprovalForAll",
      "outputs": [],
      "stateMutability": "nonpayable",
      "type": "function"
    },
    {
      "inputs": [
        {
          "internalType": "address",
          "name": "_newDexRouter",
          "type": "address"
        }
      ],
      "name": "setDexRouter",
      "outputs": [],
      "stateMutability": "nonpayable",
      "type": "function"
    },
    {
      "inputs": [
        {
          "internalType": "bytes4",
          "name": "interfaceId",
          "type": "bytes4"
        }
      ],
      "name": "supportsInterface",
      "outputs": [
        {
          "internalType": "bool",
          "name": "",
          "type": "bool"
        }
      ],
      "stateMutability": "view",
      "type": "function"
    },
    {
      "inputs": [],
      "name": "symbol",
      "outputs": [
        {
          "internalType": "string",
          "name": "",
          "type": "string"
        }
      ],
      "stateMutability": "view",
      "type": "function"
    },
    {
      "inputs": [],
      "name": "token",
      "outputs": [
        {
          "internalType": "contract IERC20",
          "name": "",
          "type": "address"
        }
      ],
      "stateMutability": "view",
      "type": "function"
    },
    {
      "inputs": [
        {
          "internalType": "uint256",
          "name": "index",
          "type": "uint256"
        }
      ],
      "name": "tokenByIndex",
      "outputs": [
        {
          "internalType": "uint256",
          "name": "",
          "type": "uint256"
        }
      ],
      "stateMutability": "view",
      "type": "function"
    },
    {
      "inputs": [],
      "name": "tokenExtension",
      "outputs": [
        {
          "internalType": "string",
          "name": "",
          "type": "string"
        }
      ],
      "stateMutability": "view",
      "type": "function"
    },
    {
      "inputs": [
        {
          "internalType": "address",
          "name": "owner",
          "type": "address"
        },
        {
          "internalType": "uint256",
          "name": "index",
          "type": "uint256"
        }
      ],
      "name": "tokenOfOwnerByIndex",
      "outputs": [
        {
          "internalType": "uint256",
          "name": "",
          "type": "uint256"
        }
      ],
      "stateMutability": "view",
      "type": "function"
    },
    {
      "inputs": [
        {
          "internalType": "uint256",
          "name": "_id",
          "type": "uint256"
        }
      ],
      "name": "tokenURI",
      "outputs": [
        {
          "internalType": "string",
          "name": "",
          "type": "string"
        }
      ],
      "stateMutability": "view",
      "type": "function"
    },
    {
      "inputs": [],
      "name": "totalDividend",
      "outputs": [
        {
          "internalType": "uint256",
          "name": "",
          "type": "uint256"
        }
      ],
      "stateMutability": "view",
      "type": "function"
    },
    {
      "inputs": [],
      "name": "totalSupply",
      "outputs": [
        {
          "internalType": "uint256",
          "name": "",
          "type": "uint256"
        }
      ],
      "stateMutability": "view",
      "type": "function"
    },
    {
      "inputs": [
        {
          "internalType": "address",
          "name": "from",
          "type": "address"
        },
        {
          "internalType": "address",
          "name": "to",
          "type": "address"
        },
        {
          "internalType": "uint256",
          "name": "tokenId",
          "type": "uint256"
        }
      ],
      "name": "transferFrom",
      "outputs": [],
      "stateMutability": "nonpayable",
      "type": "function"
    },
    {
      "inputs": [
        {
          "internalType": "address",
          "name": "newOwner",
          "type": "address"
        }
      ],
      "name": "transferOwnership",
      "outputs": [],
      "stateMutability": "nonpayable",
      "type": "function"
    },
    {
      "inputs": [
        {
          "internalType": "address",
          "name": "_newFeeReceiver",
          "type": "address"
        }
      ],
      "name": "upateFeeReceiver",
      "outputs": [],
      "stateMutability": "nonpayable",
      "type": "function"
    },
    {
      "inputs": [
        {
          "internalType": "string",
          "name": "baseImageURI_",
          "type": "string"
        }
      ],
      "name": "updateBaseImageURI",
      "outputs": [],
      "stateMutability": "nonpayable",
      "type": "function"
    },
    {
      "inputs": [
        {
          "internalType": "string",
          "name": "baseTokenURI_",
          "type": "string"
        }
      ],
      "name": "updateBaseTokenURI",
      "outputs": [],
      "stateMutability": "nonpayable",
      "type": "function"
    },
    {
      "inputs": [
        {
          "internalType": "uint256",
          "name": "_newCost",
          "type": "uint256"
        }
      ],
      "name": "updateCost",
      "outputs": [],
      "stateMutability": "nonpayable",
      "type": "function"
    },
    {
      "inputs": [
        {
          "internalType": "string",
          "name": "_newImageExtension",
          "type": "string"
        }
      ],
      "name": "updateImageExtension",
      "outputs": [],
      "stateMutability": "nonpayable",
      "type": "function"
    },
    {
      "inputs": [
        {
          "internalType": "bool",
          "name": "mintOnce_",
          "type": "bool"
        }
      ],
      "name": "updateMintOnce",
      "outputs": [],
      "stateMutability": "nonpayable",
      "type": "function"
    },
    {
      "inputs": [
        {
          "internalType": "address",
          "name": "_newRewardToken",
          "type": "address"
        }
      ],
      "name": "updateRewardToken",
      "outputs": [],
      "stateMutability": "nonpayable",
      "type": "function"
    },
    {
      "inputs": [
        {
          "internalType": "string",
          "name": "_newBaseExtension",
          "type": "string"
        }
      ],
      "name": "updateTokenExtension",
      "outputs": [],
      "stateMutability": "nonpayable",
      "type": "function"
    },
    {
      "inputs": [
        {
          "internalType": "uint256",
          "name": "_newmaxMintAmount",
          "type": "uint256"
        }
      ],
      "name": "updatemaxMintAmount",
      "outputs": [],
      "stateMutability": "nonpayable",
      "type": "function"
    }
  ],
  "bytecode": "0x60c06040526005608090815264173539b7b760d91b60a052600b90620000269082620002a7565b506040805180820190915260048152632e706e6760e01b6020820152600c90620000519082620002a7565b506000600d819055600e556064600f55600160108190556079805461ffff19169091179055607d80546001600160a01b03199081167310ed43c718714eb63d5aa57b78b54704e256024e17909155607e80548216737919f2f49102d7f2d7d9e9935e26bbd727711b73179055607f8054909116733c3cb22d555523bb85f2a76cbff8acbbb54332dc179055348015620000e957600080fd5b5060405162003b6838038062003b688339810160408190526200010c9162000422565b838360006200011c8382620002a7565b5060016200012b8282620002a7565b5050506200014862000142620001ac60201b60201c565b620001b0565b607a620001568382620002a7565b50607b620001658282620002a7565b5050607c80546001600160a01b03199081163317909155607d546080805483166001600160a01b03928316179055607e5460818054909316911617905550620004db915050565b3390565b600a80546001600160a01b038381166001600160a01b0319831681179093556040519116919082907f8be0079c531659141344cd1fd0a4f28419497f9722a3daafe3b4186f6b6457e090600090a35050565b634e487b7160e01b600052604160045260246000fd5b600181811c908216806200022d57607f821691505b6020821081036200024e57634e487b7160e01b600052602260045260246000fd5b50919050565b601f821115620002a257600081815260208120601f850160051c810160208610156200027d5750805b601f850160051c820191505b818110156200029e5782815560010162000289565b5050505b505050565b81516001600160401b03811115620002c357620002c362000202565b620002db81620002d4845462000218565b8462000254565b602080601f831160018114620003135760008415620002fa5750858301515b600019600386901b1c1916600185901b1785556200029e565b600085815260208120601f198616915b82811015620003445788860151825594840194600190910190840162000323565b5085821015620003635787850151600019600388901b60f8161c191681555b5050505050600190811b01905550565b600082601f8301126200038557600080fd5b81516001600160401b0380821115620003a257620003a262000202565b604051601f8301601f19908116603f01168101908282118183101715620003cd57620003cd62000202565b81604052838152602092508683858801011115620003ea57600080fd5b600091505b838210156200040e5785820183015181830184015290820190620003ef565b600093810190920192909252949350505050565b600080600080608085870312156200043957600080fd5b84516001600160401b03808211156200045157600080fd5b6200045f8883890162000373565b955060208701519150808211156200047657600080fd5b620004848883890162000373565b945060408701519150808211156200049b57600080fd5b620004a98883890162000373565b93506060870151915080821115620004c057600080fd5b50620004cf8782880162000373565b91505092959194509250565b61367d80620004eb6000396000f3fe60806040526004361061037f5760003560e01c80638623ec7b116101d1578063d206885711610102578063f1ccccbb116100a0578063f75b8c5f1161006f578063f75b8c5f14610a31578063f887ea4014610a47578063f8cf31cb14610a67578063fc0c546a14610a8757600080fd5b8063f1ccccbb146109b1578063f1e9f1e5146109d1578063f2fde38b146109f1578063f72f863b14610a1157600080fd5b8063e0cab8c7116100dc578063e0cab8c714610908578063e7e0cb6714610928578063e985e9c514610948578063ee6d9d6d1461099157600080fd5b8063d2068857146108a4578063d5abeb01146108d1578063e0391b09146108e657600080fd5b8063a708d4041161016f578063b3ef77f211610149578063b3ef77f214610817578063b88d4fde14610837578063c87b56dd14610857578063d004b0361461087757600080fd5b8063a708d404146107c2578063a9ef3aeb146107e2578063afc6ef60146107f757600080fd5b80638da5cb5b116101ab5780638da5cb5b1461075c57806395d89b411461077a578063a0712d681461078f578063a22cb465146107a257600080fd5b80638623ec7b146106e65780638626613b1461071c5780638d0ca2ac1461073c57600080fd5b80632f745c59116102b65780635c975abb1161025457806370a082311161022357806370a082311461067c578063715018a61461069c578063736ce0d4146106b15780637bff43e1146106d157600080fd5b80635c975abb146106035780636352211e1461061d578063655391c91461063d5780636bdfbb351461065d57600080fd5b806349edaf401161029057806349edaf40146105985780634b6acafb146105b85780634f6ccce7146105ce578063521133d1146105ee57600080fd5b80632f745c59146105425780634131ff991461056257806342842e0e1461057857600080fd5b8063095ea7b31161032357806318160ddd116102fd57806318160ddd146104d7578063239c70ae146104ec57806323b872dd1461050257806323c5a0881461052257600080fd5b8063095ea7b31461048b57806313faede6146104ab578063174f57af146104c157600080fd5b806302329a291161035f57806302329a291461041f578063047d5e801461044157806306fdde0314610449578063081812fc1461046b57600080fd5b806202516414610384578062fe50c6146103c157806301ffc9a7146103ef575b600080fd5b34801561039057600080fd5b50607f546103a4906001600160a01b031681565b6040516001600160a01b0390911681526020015b60405180910390f35b3480156103cd57600080fd5b506103e16103dc366004612d19565b610aa7565b6040519081526020016103b8565b3480156103fb57600080fd5b5061040f61040a366004612d48565b610ac8565b60405190151581526020016103b8565b34801561042b57600080fd5b5061043f61043a366004612d73565b610aed565b005b61043f610b33565b34801561045557600080fd5b5061045e610b3e565b6040516103b89190612de0565b34801561047757600080fd5b506103a4610486366004612d19565b610bd0565b34801561049757600080fd5b5061043f6104a6366004612e08565b610c65565b3480156104b757600080fd5b506103e1600d5481565b3480156104cd57600080fd5b506103e1600e5481565b3480156104e357600080fd5b506008546103e1565b3480156104f857600080fd5b506103e160105481565b34801561050e57600080fd5b5061043f61051d366004612e34565b610d7a565b34801561052e57600080fd5b5061043f61053d366004612d19565b610dab565b34801561054e57600080fd5b506103e161055d366004612e08565b610dda565b34801561056e57600080fd5b506103e160115481565b34801561058457600080fd5b5061043f610593366004612e34565b610e70565b3480156105a457600080fd5b5061043f6105b3366004612d73565b610e8b565b3480156105c457600080fd5b506103e160125481565b3480156105da57600080fd5b506103e16105e9366004612d19565b610ecf565b3480156105fa57600080fd5b5061043f610f62565b34801561060f57600080fd5b5060795461040f9060ff1681565b34801561062957600080fd5b506103a4610638366004612d19565b61127f565b34801561064957600080fd5b5061043f610658366004612f01565b6112f6565b34801561066957600080fd5b5060795461040f90610100900460ff1681565b34801561068857600080fd5b506103e1610697366004612f4a565b611330565b3480156106a857600080fd5b5061043f6113b7565b3480156106bd57600080fd5b50607d546103a4906001600160a01b031681565b3480156106dd57600080fd5b5061045e6113eb565b3480156106f257600080fd5b506103a4610701366004612d19565b6078602052600090815260409020546001600160a01b031681565b34801561072857600080fd5b5061043f610737366004612f01565b611479565b34801561074857600080fd5b5061043f610757366004612f01565b6114af565b34801561076857600080fd5b50600a546001600160a01b03166103a4565b34801561078657600080fd5b5061045e6114e5565b61043f61079d366004612d19565b6114f4565b3480156107ae57600080fd5b5061043f6107bd366004612f67565b6117c7565b3480156107ce57600080fd5b506103e16107dd366004612f4a565b61188b565b3480156107ee57600080fd5b5061045e6118dd565b34801561080357600080fd5b5061040f610812366004612f4a565b6118ea565b34801561082357600080fd5b5061043f610832366004612e08565b611953565b34801561084357600080fd5b5061043f610852366004612fa0565b611a99565b34801561086357600080fd5b5061045e610872366004612d19565b611ad1565b34801561088357600080fd5b50610897610892366004612f4a565b611b97565b6040516103b89190613020565b3480156108b057600080fd5b506103e16108bf366004612d19565b60776020526000908152604090205481565b3480156108dd57600080fd5b506103e1606481565b3480156108f257600080fd5b506108fb611c31565b6040516103b89190613064565b34801561091457600080fd5b5061043f610923366004612d19565b611d57565b34801561093457600080fd5b5061043f610943366004612f4a565b611d86565b34801561095457600080fd5b5061040f610963366004613107565b6001600160a01b03918216600090815260056020908152604080832093909416825291909152205460ff1690565b34801561099d57600080fd5b506103e16109ac366004612d19565b611dd2565b3480156109bd57600080fd5b5061043f6109cc366004612f01565b611de9565b3480156109dd57600080fd5b50607e546103a4906001600160a01b031681565b3480156109fd57600080fd5b5061043f610a0c366004612f4a565b611e1f565b348015610a1d57600080fd5b5061043f610a2c366004612f4a565b611eba565b348015610a3d57600080fd5b506103e1600f5481565b348015610a5357600080fd5b506080546103a4906001600160a01b031681565b348015610a7357600080fd5b5061043f610a82366004612f4a565b611f10565b348015610a9357600080fd5b506081546103a4906001600160a01b031681565b600081815260776020526040812054601254610ac291611f66565b92915050565b60006001600160e01b0319821663780e9d6360e01b1480610ac25750610ac282611f72565b600a546001600160a01b03163314610b205760405162461bcd60e51b8152600401610b1790613135565b60405180910390fd5b6079805460ff1916911515919091179055565b610b3c34611fc2565b565b606060008054610b4d9061316a565b80601f0160208091040260200160405190810160405280929190818152602001828054610b799061316a565b8015610bc65780601f10610b9b57610100808354040283529160200191610bc6565b820191906000526020600020905b815481529060010190602001808311610ba957829003601f168201915b5050505050905090565b6000818152600260205260408120546001600160a01b0316610c495760405162461bcd60e51b815260206004820152602c60248201527f4552433732313a20617070726f76656420717565727920666f72206e6f6e657860448201526b34b9ba32b73a103a37b5b2b760a11b6064820152608401610b17565b506000908152600460205260409020546001600160a01b031690565b6000610c708261127f565b9050806001600160a01b0316836001600160a01b031603610cdd5760405162461bcd60e51b815260206004820152602160248201527f4552433732313a20617070726f76616c20746f2063757272656e74206f776e656044820152603960f91b6064820152608401610b17565b336001600160a01b0382161480610cf95750610cf98133610963565b610d6b5760405162461bcd60e51b815260206004820152603860248201527f4552433732313a20617070726f76652063616c6c6572206973206e6f74206f7760448201527f6e6572206e6f7220617070726f76656420666f7220616c6c00000000000000006064820152608401610b17565b610d758383611ff7565b505050565b610d843382612065565b610da05760405162461bcd60e51b8152600401610b17906131a4565b610d7583838361215c565b600a546001600160a01b03163314610dd55760405162461bcd60e51b8152600401610b1790613135565b600d55565b6000610de583611330565b8210610e475760405162461bcd60e51b815260206004820152602b60248201527f455243373231456e756d657261626c653a206f776e657220696e646578206f7560448201526a74206f6620626f756e647360a81b6064820152608401610b17565b506001600160a01b03919091166000908152600660209081526040808320938352929052205490565b610d7583838360405180602001604052806000815250611a99565b600a546001600160a01b03163314610eb55760405162461bcd60e51b8152600401610b1790613135565b607980549115156101000261ff0019909216919091179055565b6000610eda60085490565b8210610f3d5760405162461bcd60e51b815260206004820152602c60248201527f455243373231456e756d657261626c653a20676c6f62616c20696e646578206f60448201526b7574206f6620626f756e647360a01b6064820152608401610b17565b60088281548110610f5057610f506131f5565b90600052602060002001549050919050565b6000610f6d33611330565b6081546040516370a0823160e01b81523060048201529192506000916001600160a01b03909116906370a0823190602401602060405180830381865afa158015610fbb573d6000803e3d6000fd5b505050506040513d601f19601f82011682018060405250810190610fdf919061320b565b90506000805b83811015611038576000610ff93383610dda565b905061100e61100782610aa7565b8490612307565b601254600092835260776020526040909220919091559150806110308161323a565b915050610fe5565b506040805160028082526060820183526000926020830190803683375050608054604080516315ab88c960e31b815290519394506001600160a01b039091169263ad5c4648925060048083019260209291908290030181865afa1580156110a3573d6000803e3d6000fd5b505050506040513d601f19601f820116820180604052508101906110c79190613253565b816000815181106110da576110da6131f5565b6001600160a01b039283166020918202929092010152607e5482519116908290600190811061110b5761110b6131f5565b6001600160a01b03928316602091820292909201015260805460405163b6f9de9560e01b815291169063b6f9de9590849061115190600090869030904290600401613270565b6000604051808303818588803b15801561116a57600080fd5b505af115801561117e573d6000803e3d6000fd5b50506081546040516370a0823160e01b8152306004820152600094506001600160a01b0390911692506370a082319150602401602060405180830381865afa1580156111ce573d6000803e3d6000fd5b505050506040513d601f19601f820116820180604052508101906111f2919061320b565b905060006112008286611f66565b60815460405163a9059cbb60e01b8152336004820152602481018390529192506001600160a01b03169063a9059cbb906044016020604051808303816000875af1158015611252573d6000803e3d6000fd5b505050506040513d601f19601f8201168201806040525081019061127691906132da565b50505050505050565b6000818152600260205260408120546001600160a01b031680610ac25760405162461bcd60e51b815260206004820152602960248201527f4552433732313a206f776e657220717565727920666f72206e6f6e657869737460448201526832b73a103a37b5b2b760b91b6064820152608401610b17565b600a546001600160a01b031633146113205760405162461bcd60e51b8152600401610b1790613135565b607a61132c8282613345565b5050565b60006001600160a01b03821661139b5760405162461bcd60e51b815260206004820152602a60248201527f4552433732313a2062616c616e636520717565727920666f7220746865207a65604482015269726f206164647265737360b01b6064820152608401610b17565b506001600160a01b031660009081526003602052604090205490565b600a546001600160a01b031633146113e15760405162461bcd60e51b8152600401610b1790613135565b610b3c6000612313565b600b80546113f89061316a565b80601f01602080910402602001604051908101604052809291908181526020018280546114249061316a565b80156114715780601f1061144657610100808354040283529160200191611471565b820191906000526020600020905b81548152906001019060200180831161145457829003601f168201915b505050505081565b600a546001600160a01b031633146114a35760405162461bcd60e51b8152600401610b1790613135565b600b61132c8282613345565b600a546001600160a01b031633146114d95760405162461bcd60e51b8152600401610b1790613135565b607b61132c8282613345565b606060018054610b4d9061316a565b60795460ff16156115475760405162461bcd60e51b815260206004820152601b60248201527f4d696e74696e6720686173206e6f7420737461727465642079657400000000006044820152606401610b17565b600081116115975760405162461bcd60e51b815260206004820152601d60248201527f596f75206861766520746f206d696e74206174206c65617374206f6e650000006044820152606401610b17565b6010548111156115a8601054612365565b6040516020016115b89190613405565b604051602081830303815290604052906115e55760405162461bcd60e51b8152600401610b179190612de0565b5080600f5410156116385760405162461bcd60e51b815260206004820152601a60248201527f54686520636f6c6c656374696f6e20697320736f6c64206f75740000000000006044820152606401610b17565b600a546001600160a01b031633146116a05780600d546116589190613453565b3410156116a05760405162461bcd60e51b81526020600482015260166024820152750a8dee8c2d840c6dee6e840d2e6dc4ee840dac2e8c6d60531b6044820152606401610b17565b607954610100900460ff1615611714576116b9336118ea565b156117145760405162461bcd60e51b815260206004820152602560248201527f5468697320616464726573732068617320616c7265616479206d696e746564206044820152643a37b5b2b760d91b6064820152608401610b17565b60015b81811161176257600061172a8334613480565b9050600061173733612466565b905061174282612537565b61174d3382846125ac565b5050808061175a9061323a565b915050611717565b505060408051602081019091523381526083805460018101825560009190915290517f1397b88f412a83a7f1c0d834c533e486ff1f24f42a31819e91b624931060a86390910180546001600160a01b0319166001600160a01b03909216919091179055565b336001600160a01b0383160361181f5760405162461bcd60e51b815260206004820152601960248201527f4552433732313a20617070726f766520746f2063616c6c6572000000000000006044820152606401610b17565b3360008181526005602090815260408083206001600160a01b03871680855290835292819020805460ff191686151590811790915590519081529192917f17307eab39ab6107e8899845ad3d59bd9653f200f220920489ca2b5937696c31910160405180910390a35050565b60008061189783611330565b90506000805b828110156118d55760006118b18683610dda565b90506118bf61100782610aa7565b92505080806118cd9061323a565b91505061189d565b509392505050565b600c80546113f89061316a565b6000805b60835481101561194a57826001600160a01b031660838281548110611915576119156131f5565b6000918252602090912001546001600160a01b0316036119385750600192915050565b806119428161323a565b9150506118ee565b50600092915050565b600a546001600160a01b0316331461197d5760405162461bcd60e51b8152600401610b1790613135565b6001600160a01b0382166119c25760405162461bcd60e51b815260206004820152600c60248201526b5a65726f206164647265737360a01b6044820152606401610b17565b60008111611a125760405162461bcd60e51b815260206004820152601d60248201527f596f75206861766520746f206d696e74206174206c65617374206f6e650000006044820152606401610b17565b600f54600003611a645760405162461bcd60e51b815260206004820152601a60248201527f54686520636f6c6c656374696f6e20697320736f6c64206f75740000000000006044820152606401610b17565b60015b818111610d75576000611a7984612466565b9050611a868482856125ac565b5080611a918161323a565b915050611a67565b611aa33383612065565b611abf5760405162461bcd60e51b8152600401610b17906131a4565b611acb848484846126d3565b50505050565b6000818152600260205260409020546060906001600160a01b0316611b385760405162461bcd60e51b815260206004820152601f60248201527f55524920717565727920666f72206e6f6e6578697374656e7420746f6b656e006044820152606401610b17565b6000611b42612706565b90506000815111611b625760405180602001604052806000815250611b90565b80611b6c84612365565b600b604051602001611b8093929190613494565b6040516020818303038152906040525b9392505050565b60606000611ba483611330565b905060008167ffffffffffffffff811115611bc157611bc1612e75565b604051908082528060200260200182016040528015611bea578160200160208202803683370190505b50905060005b828110156118d557611c028582610dda565b828281518110611c1457611c146131f5565b602090810291909101015280611c298161323a565b915050611bf0565b60606082805480602002602001604051908101604052809291908181526020016000905b82821015611d4e5760008481526020908190206040805160a081018252600586029092018054835260018101546001600160a01b031693830193909352600283015490820152600382018054919291606084019190611cb39061316a565b80601f0160208091040260200160405190810160405280929190818152602001828054611cdf9061316a565b8015611d2c5780601f10611d0157610100808354040283529160200191611d2c565b820191906000526020600020905b815481529060010190602001808311611d0f57829003601f168201915b5050505050815260200160048201548152505081526020019060010190611c55565b50505050905090565b600a546001600160a01b03163314611d815760405162461bcd60e51b8152600401610b1790613135565b601055565b600a546001600160a01b03163314611db05760405162461bcd60e51b8152600401610b1790613135565b607f80546001600160a01b0319166001600160a01b0392909216919091179055565b60138160648110611de257600080fd5b0154905081565b600a546001600160a01b03163314611e135760405162461bcd60e51b8152600401610b1790613135565b600c61132c8282613345565b600a546001600160a01b03163314611e495760405162461bcd60e51b8152600401610b1790613135565b6001600160a01b038116611eae5760405162461bcd60e51b815260206004820152602660248201527f4f776e61626c653a206e6577206f776e657220697320746865207a65726f206160448201526564647265737360d01b6064820152608401610b17565b611eb781612313565b50565b600a546001600160a01b03163314611ee45760405162461bcd60e51b8152600401610b1790613135565b607d80546001600160a01b039092166001600160a01b0319928316811790915560808054909216179055565b600a546001600160a01b03163314611f3a5760405162461bcd60e51b8152600401610b1790613135565b607e80546001600160a01b039092166001600160a01b0319928316811790915560818054909216179055565b6000611b908284613534565b60006001600160e01b031982166380ac58cd60e01b1480611fa357506001600160e01b03198216635b5e139f60e01b145b80610ac257506301ffc9a760e01b6001600160e01b0319831614610ac2565b601154611fcf9082612307565b601155611ff1611fe8611fe160085490565b8390612715565b60125490612307565b60125550565b600081815260046020526040902080546001600160a01b0319166001600160a01b038416908117909155819061202c8261127f565b6001600160a01b03167f8c5be1e5ebec7d5bd14f71427d1e84f3dd0314c0f7b2291e5b200ac8c7c3b92560405160405180910390a45050565b6000818152600260205260408120546001600160a01b03166120de5760405162461bcd60e51b815260206004820152602c60248201527f4552433732313a206f70657261746f7220717565727920666f72206e6f6e657860448201526b34b9ba32b73a103a37b5b2b760a11b6064820152608401610b17565b60006120e98361127f565b9050806001600160a01b0316846001600160a01b031614806121245750836001600160a01b031661211984610bd0565b6001600160a01b0316145b8061215457506001600160a01b0380821660009081526005602090815260408083209388168352929052205460ff165b949350505050565b826001600160a01b031661216f8261127f565b6001600160a01b0316146121d75760405162461bcd60e51b815260206004820152602960248201527f4552433732313a207472616e73666572206f6620746f6b656e2074686174206960448201526839903737ba1037bbb760b91b6064820152608401610b17565b6001600160a01b0382166122395760405162461bcd60e51b8152602060048201526024808201527f4552433732313a207472616e7366657220746f20746865207a65726f206164646044820152637265737360e01b6064820152608401610b17565b612244838383612721565b61224f600082611ff7565b6001600160a01b0383166000908152600360205260408120805460019290612278908490613534565b90915550506001600160a01b03821660009081526003602052604081208054600192906122a6908490613547565b909155505060008181526002602052604080822080546001600160a01b0319166001600160a01b0386811691821790925591518493918716917fddf252ad1be2c89b69c2b068fc378daa952ba7f163c4a11628f55a4df523b3ef91a4505050565b6000611b908284613547565b600a80546001600160a01b038381166001600160a01b0319831681179093556040519116919082907f8be0079c531659141344cd1fd0a4f28419497f9722a3daafe3b4186f6b6457e090600090a35050565b60608160000361238c5750506040805180820190915260018152600360fc1b602082015290565b8160005b81156123b657806123a08161323a565b91506123af9050600a83613480565b9150612390565b60008167ffffffffffffffff8111156123d1576123d1612e75565b6040519080825280601f01601f1916602001820160405280156123fb576020820181803683370190505b5090505b841561215457612410600183613534565b915061241d600a8661355a565b612428906030613547565b60f81b81838151811061243d5761243d6131f5565b60200101906001600160f81b031916908160001a90535061245f600a86613480565b94506123ff565b600f54604080514460208083019190915242828401526060808301859052835180840390910181526080909201909252805191012060009182916124aa919061355a565b905060006124b7826127d9565b6124c2906001613547565b600f805491925060006124d48361356e565b91905055506124e4600f546127d9565b601383606481106124f7576124f76131f5565b01556125038482612814565b600081815260786020908152604080832080546001600160a01b031916331790556012546077909252909120559392505050565b60006125596064612553600e548561282e90919063ffffffff16565b90612715565b905060006125678383611f66565b905061257282611fc2565b607f546040516001600160a01b039091169082156108fc029083906000818181858888f19350505050158015611acb573d6000803e3d6000fd5b60006125b78361283a565b6040805160a0810182528581526001600160a01b03878116602083019081529282018681526060830185815242608085018190526082805460018101825560009190915285517fb2244e644cfe16f72b654fbc48ff0fecec8fc59649ca8625094bebd9bd2e4035600590920291820190815596517fb2244e644cfe16f72b654fbc48ff0fecec8fc59649ca8625094bebd9bd2e4036820180546001600160a01b031916919096161790945591517fb2244e644cfe16f72b654fbc48ff0fecec8fc59649ca8625094bebd9bd2e403784015551949550939192917fb2244e644cfe16f72b654fbc48ff0fecec8fc59649ca8625094bebd9bd2e4038909101906126bf9082613345565b506080820151816004015550505050505050565b6126de84848461215c565b6126ea84848484612907565b611acb5760405162461bcd60e51b8152600401610b1790613585565b6060607a8054610b4d9061316a565b6000611b908284613480565b6001600160a01b03831661277c5761277781600880546000838152600960205260408120829055600182018355919091527ff3f7a9fe364faab93b216da50a3214154f22a0a2b415b23a84c8169e8b636ee30155565b61279f565b816001600160a01b0316836001600160a01b03161461279f5761279f8382612a08565b6001600160a01b0382166127b657610d7581612aa5565b826001600160a01b0316826001600160a01b031614610d7557610d758282612b54565b6000601382606481106127ee576127ee6131f5565b0154156128105760138260648110612808576128086131f5565b015492915050565b5090565b61132c828260405180602001604052806000815250612b98565b6000611b908284613453565b60606000607b805461284b9061316a565b80601f01602080910402602001604051908101604052809291908181526020018280546128779061316a565b80156128c45780601f10612899576101008083540402835291602001916128c4565b820191906000526020600020905b8154815290600101906020018083116128a757829003601f168201915b5050505050905060008151116128e95760405180602001604052806000815250611b90565b806128f384612365565b600c604051602001611b8093929190613494565b60006001600160a01b0384163b156129fd57604051630a85bd0160e11b81526001600160a01b0385169063150b7a029061294b9033908990889088906004016135d7565b6020604051808303816000875af1925050508015612986575060408051601f3d908101601f1916820190925261298391810190613614565b60015b6129e3573d8080156129b4576040519150601f19603f3d011682016040523d82523d6000602084013e6129b9565b606091505b5080516000036129db5760405162461bcd60e51b8152600401610b1790613585565b805181602001fd5b6001600160e01b031916630a85bd0160e11b149050612154565b506001949350505050565b60006001612a1584611330565b612a1f9190613534565b600083815260076020526040902054909150808214612a72576001600160a01b03841660009081526006602090815260408083208584528252808320548484528184208190558352600790915290208190555b5060009182526007602090815260408084208490556001600160a01b039094168352600681528383209183525290812055565b600854600090612ab790600190613534565b60008381526009602052604081205460088054939450909284908110612adf57612adf6131f5565b906000526020600020015490508060088381548110612b0057612b006131f5565b6000918252602080832090910192909255828152600990915260408082208490558582528120556008805480612b3857612b38613631565b6001900381819060005260206000200160009055905550505050565b6000612b5f83611330565b6001600160a01b039093166000908152600660209081526040808320868452825280832085905593825260079052919091209190915550565b612ba28383612bcb565b612baf6000848484612907565b610d755760405162461bcd60e51b8152600401610b1790613585565b6001600160a01b038216612c215760405162461bcd60e51b815260206004820181905260248201527f4552433732313a206d696e7420746f20746865207a65726f20616464726573736044820152606401610b17565b6000818152600260205260409020546001600160a01b031615612c865760405162461bcd60e51b815260206004820152601c60248201527f4552433732313a20746f6b656e20616c7265616479206d696e746564000000006044820152606401610b17565b612c9260008383612721565b6001600160a01b0382166000908152600360205260408120805460019290612cbb908490613547565b909155505060008181526002602052604080822080546001600160a01b0319166001600160a01b03861690811790915590518392907fddf252ad1be2c89b69c2b068fc378daa952ba7f163c4a11628f55a4df523b3ef908290a45050565b600060208284031215612d2b57600080fd5b5035919050565b6001600160e01b031981168114611eb757600080fd5b600060208284031215612d5a57600080fd5b8135611b9081612d32565b8015158114611eb757600080fd5b600060208284031215612d8557600080fd5b8135611b9081612d65565b60005b83811015612dab578181015183820152602001612d93565b50506000910152565b60008151808452612dcc816020860160208601612d90565b601f01601f19169290920160200192915050565b602081526000611b906020830184612db4565b6001600160a01b0381168114611eb757600080fd5b60008060408385031215612e1b57600080fd5b8235612e2681612df3565b946020939093013593505050565b600080600060608486031215612e4957600080fd5b8335612e5481612df3565b92506020840135612e6481612df3565b929592945050506040919091013590565b634e487b7160e01b600052604160045260246000fd5b600067ffffffffffffffff80841115612ea657612ea6612e75565b604051601f8501601f19908116603f01168101908282118183101715612ece57612ece612e75565b81604052809350858152868686011115612ee757600080fd5b858560208301376000602087830101525050509392505050565b600060208284031215612f1357600080fd5b813567ffffffffffffffff811115612f2a57600080fd5b8201601f81018413612f3b57600080fd5b61215484823560208401612e8b565b600060208284031215612f5c57600080fd5b8135611b9081612df3565b60008060408385031215612f7a57600080fd5b8235612f8581612df3565b91506020830135612f9581612d65565b809150509250929050565b60008060008060808587031215612fb657600080fd5b8435612fc181612df3565b93506020850135612fd181612df3565b925060408501359150606085013567ffffffffffffffff811115612ff457600080fd5b8501601f8101871361300557600080fd5b61301487823560208401612e8b565b91505092959194509250565b6020808252825182820181905260009190848201906040850190845b818110156130585783518352928401929184019160010161303c565b50909695505050505050565b60006020808301818452808551808352604092508286019150828160051b87010184880160005b838110156130f957888303603f19018552815180518452878101516001600160a01b031688850152868101518785015260608082015160a082870181905291906130d783880182612db4565b608094850151979094019690965250509487019492509086019060010161308b565b509098975050505050505050565b6000806040838503121561311a57600080fd5b823561312581612df3565b91506020830135612f9581612df3565b6020808252818101527f4f776e61626c653a2063616c6c6572206973206e6f7420746865206f776e6572604082015260600190565b600181811c9082168061317e57607f821691505b60208210810361319e57634e487b7160e01b600052602260045260246000fd5b50919050565b60208082526031908201527f4552433732313a207472616e736665722063616c6c6572206973206e6f74206f6040820152701ddb995c881b9bdc88185c1c1c9bdd9959607a1b606082015260800190565b634e487b7160e01b600052603260045260246000fd5b60006020828403121561321d57600080fd5b5051919050565b634e487b7160e01b600052601160045260246000fd5b60006001820161324c5761324c613224565b5060010190565b60006020828403121561326557600080fd5b8151611b9081612df3565b600060808201868352602060808185015281875180845260a086019150828901935060005b818110156132ba5784516001600160a01b031683529383019391830191600101613295565b50506001600160a01b039690961660408501525050506060015292915050565b6000602082840312156132ec57600080fd5b8151611b9081612d65565b601f821115610d7557600081815260208120601f850160051c8101602086101561331e5750805b601f850160051c820191505b8181101561333d5782815560010161332a565b505050505050565b815167ffffffffffffffff81111561335f5761335f612e75565b6133738161336d845461316a565b846132f7565b602080601f8311600181146133a857600084156133905750858301515b600019600386901b1c1916600185901b17855561333d565b600085815260208120601f198616915b828110156133d7578886015182559484019460019091019084016133b8565b50858210156133f55787850151600019600388901b60f8161c191681555b5050505050600190811b01905550565b7102cb7ba9031b0b71037b7363c9036b4b73a160751b815260008251613432816012850160208701612d90565b6920617420612074696d6560b01b6012939091019283015250601c01919050565b8082028115828204841417610ac257610ac2613224565b634e487b7160e01b600052601260045260246000fd5b60008261348f5761348f61346a565b500490565b6000845160206134a78285838a01612d90565b8551918401916134ba8184848a01612d90565b85549201916000906134cb8161316a565b600182811680156134e357600181146134f857613524565b60ff1984168752821515830287019450613524565b896000528560002060005b8481101561351c57815489820152908301908701613503565b505082870194505b50929a9950505050505050505050565b81810381811115610ac257610ac2613224565b80820180821115610ac257610ac2613224565b6000826135695761356961346a565b500690565b60008161357d5761357d613224565b506000190190565b60208082526032908201527f4552433732313a207472616e7366657220746f206e6f6e20455243373231526560408201527131b2b4bb32b91034b6b83632b6b2b73a32b960711b606082015260800190565b6001600160a01b038581168252841660208201526040810183905260806060820181905260009061360a90830184612db4565b9695505050505050565b60006020828403121561362657600080fd5b8151611b9081612d32565b634e487b7160e01b600052603160045260246000fdfea2646970667358221220a805dabc86e2abc180da02da22c242cdf226d41f8033569135b48a0ec309db3e64736f6c63430008110033",
  "linkReferences": {},
  "deployedLinkReferences": {}
}